{
  "_format": "hh-sol-artifact-1",
  "contractName": "Nexus",
  "sourceName": "contracts/Nexus.sol",
  "abi": [
    {
      "inputs": [
        {
          "internalType": "address",
          "name": "botAddress",
          "type": "address"
        }
      ],
      "stateMutability": "nonpayable",
      "type": "constructor"
    },
    {
      "inputs": [],
      "name": "BridgeAlreadyIntegrated",
      "type": "error"
    },
    {
      "inputs": [],
      "name": "BridgeNotIntegrated",
      "type": "error"
    },
    {
      "inputs": [],
      "name": "ChangesNotMade",
      "type": "error"
    },
    {
      "inputs": [],
      "name": "NotBot",
      "type": "error"
    },
    {
      "anonymous": false,
      "inputs": [
        {
          "indexed": false,
          "internalType": "string",
          "name": "name",
          "type": "string"
        },
        {
          "indexed": false,
          "internalType": "uint256",
          "name": "savingLimit",
          "type": "uint256"
        },
        {
          "indexed": false,
          "internalType": "address",
          "name": "bridgeContract",
          "type": "address"
        },
        {
          "indexed": false,
          "internalType": "address",
          "name": "owner",
          "type": "address"
        }
      ],
      "name": "BridgeRegistered",
      "type": "event"
    },
    {
      "anonymous": false,
      "inputs": [
        {
          "indexed": false,
          "internalType": "address",
          "name": "owner",
          "type": "address"
        },
        {
          "indexed": false,
          "internalType": "uint256",
          "name": "newLimit",
          "type": "uint256"
        }
      ],
      "name": "SavingLimitChaged",
      "type": "event"
    },
    {
      "anonymous": false,
      "inputs": [
        {
          "indexed": false,
          "internalType": "address",
          "name": "owner",
          "type": "address"
        },
        {
          "indexed": false,
          "internalType": "uint256",
          "name": "amount",
          "type": "uint256"
        }
      ],
      "name": "TotalRewardsClaimed",
      "type": "event"
    },
    {
      "inputs": [],
      "name": "bot",
      "outputs": [
        {
          "internalType": "address",
          "name": "",
          "type": "address"
        }
      ],
      "stateMutability": "view",
      "type": "function"
    },
    {
      "inputs": [
        {
          "internalType": "uint256",
          "name": "newsavingLimit",
          "type": "uint256"
        }
      ],
      "name": "changeSavingLimit",
      "outputs": [],
      "stateMutability": "nonpayable",
      "type": "function"
    },
    {
      "inputs": [
        {
          "internalType": "address",
          "name": "ownerAddress",
          "type": "address"
        }
      ],
      "name": "claimRewards",
      "outputs": [],
      "stateMutability": "nonpayable",
      "type": "function"
    },
    {
      "inputs": [
        {
          "internalType": "address",
          "name": "",
          "type": "address"
        }
      ],
      "name": "integratedBridges",
      "outputs": [
        {
          "internalType": "address",
          "name": "bridgeContract",
          "type": "address"
        },
        {
          "internalType": "uint256",
          "name": "savingLimit",
          "type": "uint256"
        }
      ],
      "stateMutability": "view",
      "type": "function"
    },
    {
      "inputs": [
        {
          "internalType": "address",
          "name": "ownerAddress",
          "type": "address"
        }
      ],
      "name": "rebalanceDAI",
      "outputs": [],
      "stateMutability": "nonpayable",
      "type": "function"
    },
    {
      "inputs": [
        {
          "internalType": "string",
          "name": "name",
          "type": "string"
        },
        {
          "internalType": "uint256",
          "name": "savingLimit",
          "type": "uint256"
        },
        {
          "internalType": "address",
          "name": "bridgeContract",
          "type": "address"
        }
      ],
      "name": "registerBridge",
      "outputs": [],
      "stateMutability": "nonpayable",
      "type": "function"
    }
  ],
  "bytecode": "0x60a060405234801561001057600080fd5b50604051610da5380380610da583398181016040528101906100329190610084565b8073ffffffffffffffffffffffffffffffffffffffff1660808173ffffffffffffffffffffffffffffffffffffffff1660601b81525050506100f6565b60008151905061007e816100df565b92915050565b60006020828403121561009657600080fd5b60006100a48482850161006f565b91505092915050565b60006100b8826100bf565b9050919050565b600073ffffffffffffffffffffffffffffffffffffffff82169050919050565b6100e8816100ad565b81146100f357600080fd5b50565b60805160601c610c8a61011b6000396000818161012801526105a50152610c8a6000f3fe608060405234801561001057600080fd5b50600436106100625760003560e01c806310814c37146100675780632ec4d44e1461008557806331977f81146100b65780633d139ace146100d2578063960f08fd146100ee578063ef5cfb8c1461010a575b600080fd5b61006f610126565b60405161007c9190610b0c565b60405180910390f35b61009f600480360381019061009a91906109b1565b61014a565b6040516100ad929190610b27565b60405180910390f35b6100d060048036038101906100cb9190610a6f565b61018e565b005b6100ec60048036038101906100e79190610a03565b6102d8565b005b610108600480360381019061010391906109b1565b6105a3565b005b610124600480360381019061011f91906109b1565b610738565b005b7f000000000000000000000000000000000000000000000000000000000000000081565b60006020528060005260406000206000915090508060000160009054906101000a900473ffffffffffffffffffffffffffffffffffffffff16908060010154905082565b600073ffffffffffffffffffffffffffffffffffffffff166000803373ffffffffffffffffffffffffffffffffffffffff1673ffffffffffffffffffffffffffffffffffffffff16815260200190815260200160002060000160009054906101000a900473ffffffffffffffffffffffffffffffffffffffff1673ffffffffffffffffffffffffffffffffffffffff161415610256576040517ffdf91f1700000000000000000000000000000000000000000000000000000000815260040160405180910390fd5b7fa1501ea9a02f752c9242e20097d42dff58fdb191c49014467e52fa1ac32f58d53382604051610287929190610b27565b60405180910390a1806000803373ffffffffffffffffffffffffffffffffffffffff1673ffffffffffffffffffffffffffffffffffffffff1681526020019081526020016000206001018190555050565b60008060003373ffffffffffffffffffffffffffffffffffffffff1673ffffffffffffffffffffffffffffffffffffffff168152602001908152602001600020600101541115610354576040517fcb2def7000000000000000000000000000000000000000000000000000000000815260040160405180910390fd5b3073ffffffffffffffffffffffffffffffffffffffff168173ffffffffffffffffffffffffffffffffffffffff1663b2a632d86040518163ffffffff1660e01b815260040160206040518083038186803b1580156103b157600080fd5b505afa1580156103c5573d6000803e3d6000fd5b505050506040513d601f19601f820116820180604052508101906103e991906109da565b73ffffffffffffffffffffffffffffffffffffffff1614610436576040517f7a6ca6ec00000000000000000000000000000000000000000000000000000000815260040160405180910390fd5b60405180604001604052808273ffffffffffffffffffffffffffffffffffffffff168152602001838152506000803373ffffffffffffffffffffffffffffffffffffffff1673ffffffffffffffffffffffffffffffffffffffff16815260200190815260200160002060008201518160000160006101000a81548173ffffffffffffffffffffffffffffffffffffffff021916908373ffffffffffffffffffffffffffffffffffffffff160217905550602082015181600101559050508073ffffffffffffffffffffffffffffffffffffffff166309189f9c836040518263ffffffff1660e01b815260040161052c9190610b9e565b600060405180830381600087803b15801561054657600080fd5b505af115801561055a573d6000803e3d6000fd5b505050507fd7a4cb8436905d5a6e0845e7e64e5a200294aa4c271ac742d0a437282d0ec89a8484848433604051610595959493929190610b50565b60405180910390a150505050565b7f000000000000000000000000000000000000000000000000000000000000000073ffffffffffffffffffffffffffffffffffffffff163373ffffffffffffffffffffffffffffffffffffffff1614610628576040517fa03b20af00000000000000000000000000000000000000000000000000000000815260040160405180910390fd5b6000808273ffffffffffffffffffffffffffffffffffffffff1673ffffffffffffffffffffffffffffffffffffffff16815260200190815260200160002060000160009054906101000a900473ffffffffffffffffffffffffffffffffffffffff1673ffffffffffffffffffffffffffffffffffffffff166313dab7b36000808473ffffffffffffffffffffffffffffffffffffffff1673ffffffffffffffffffffffffffffffffffffffff168152602001908152602001600020600101546040518263ffffffff1660e01b81526004016107039190610b9e565b600060405180830381600087803b15801561071d57600080fd5b505af1158015610731573d6000803e3d6000fd5b5050505050565b6000808273ffffffffffffffffffffffffffffffffffffffff1673ffffffffffffffffffffffffffffffffffffffff16815260200190815260200160002060000160009054906101000a900473ffffffffffffffffffffffffffffffffffffffff1673ffffffffffffffffffffffffffffffffffffffff1663372500ab6040518163ffffffff1660e01b8152600401600060405180830381600087803b1580156107e157600080fd5b505af11580156107f5573d6000803e3d6000fd5b505050507fe4c513bf7d1acf72dd5401c0dbba319f8f56e62cfc9c3a467718815be4d75a9e816000808473ffffffffffffffffffffffffffffffffffffffff1673ffffffffffffffffffffffffffffffffffffffff16815260200190815260200160002060000160009054906101000a900473ffffffffffffffffffffffffffffffffffffffff1673ffffffffffffffffffffffffffffffffffffffff16631f44e7c56040518163ffffffff1660e01b815260040160206040518083038186803b1580156108c257600080fd5b505afa1580156108d6573d6000803e3d6000fd5b505050506040513d601f19601f820116820180604052508101906108fa9190610a98565b604051610908929190610b27565b60405180910390a150565b60008135905061092281610c26565b92915050565b60008151905061093781610c26565b92915050565b60008083601f84011261094f57600080fd5b8235905067ffffffffffffffff81111561096857600080fd5b60208301915083600182028301111561098057600080fd5b9250929050565b60008135905061099681610c3d565b92915050565b6000815190506109ab81610c3d565b92915050565b6000602082840312156109c357600080fd5b60006109d184828501610913565b91505092915050565b6000602082840312156109ec57600080fd5b60006109fa84828501610928565b91505092915050565b60008060008060608587031215610a1957600080fd5b600085013567ffffffffffffffff811115610a3357600080fd5b610a3f8782880161093d565b94509450506020610a5287828801610987565b9250506040610a6387828801610913565b91505092959194509250565b600060208284031215610a8157600080fd5b6000610a8f84828501610987565b91505092915050565b600060208284031215610aaa57600080fd5b6000610ab88482850161099c565b91505092915050565b610aca81610bca565b82525050565b6000610adc8385610bb9565b9350610ae9838584610c06565b610af283610c15565b840190509392505050565b610b0681610bfc565b82525050565b6000602082019050610b216000830184610ac1565b92915050565b6000604082019050610b3c6000830185610ac1565b610b496020830184610afd565b9392505050565b60006080820190508181036000830152610b6b818789610ad0565b9050610b7a6020830186610afd565b610b876040830185610ac1565b610b946060830184610ac1565b9695505050505050565b6000602082019050610bb36000830184610afd565b92915050565b600082825260208201905092915050565b6000610bd582610bdc565b9050919050565b600073ffffffffffffffffffffffffffffffffffffffff82169050919050565b6000819050919050565b82818337600083830152505050565b6000601f19601f8301169050919050565b610c2f81610bca565b8114610c3a57600080fd5b50565b610c4681610bfc565b8114610c5157600080fd5b5056fea26469706673582212204b02eb98a3461204efa1020e41a541d230438b5a906bf8ebb5dcc4c70a319a0164736f6c63430008040033",
  "linkReferences": {},
  "deployedLinkReferences": {}
}